{
  "transactions": [
    {
      "hash": "0x7abb8c0f6e22c2bedb3560d43032ea430f7eb3f08a686c4524940cf17d8f6dec",
      "transactionType": "CALL",
      "contractName": null,
      "contractAddress": "0xE14d50Cae8e17A738A7BB23433b1Cfe7E225D365",
      "function": "openCardRequest(address,address,uint256,string,string,string)",
      "arguments": [
        "0xdfcb98d66336084326Bf69a0e55Ed15c2Ae24008",
        "0xFbf4A79ba447adE8b8B593438803Dc9Df49d6D95",
        "0",
        "\"G2785322\"",
        "\"0C9TRFSCTB\"",
        "\"\""
      ],
      "transaction": {
        "type": "0x02",
        "from": "0xdfcb98d66336084326bf69a0e55ed15c2ae24008",
        "to": "0xe14d50cae8e17a738a7bb23433b1cfe7e225d365",
        "gas": "0x275f6",
        "value": "0x0",
        "data": "0xa4ded79f000000000000000000000000dfcb98d66336084326bf69a0e55ed15c2ae24008000000000000000000000000fbf4a79ba447ade8b8b593438803dc9df49d6d95000000000000000000000000000000000000000000000000000000000000000000000000000000000000000000000000000000000000000000000000000000c00000000000000000000000000000000000000000000000000000000000000100000000000000000000000000000000000000000000000000000000000000014000000000000000000000000000000000000000000000000000000000000000084732373835333232000000000000000000000000000000000000000000000000000000000000000000000000000000000000000000000000000000000000000a30433954524653435442000000000000000000000000000000000000000000000000000000000000000000000000000000000000000000000000000000000000",
        "nonce": "0xba1",
        "accessList": []
      },
      "additionalContracts": [],
      "isFixedGasLimit": false
    }
  ],
  "receipts": [
    {
      "transactionHash": "0x7abb8c0f6e22c2bedb3560d43032ea430f7eb3f08a686c4524940cf17d8f6dec",
      "transactionIndex": "0x8",
      "blockHash": "0x903bee4ff2f69156ce208381764d98496de59053d61d8c3a87782765a60f3739",
      "blockNumber": "0x6a8fe7",
      "from": "0xdfcb98d66336084326Bf69a0e55Ed15c2Ae24008",
      "to": "0xE14d50Cae8e17A738A7BB23433b1Cfe7E225D365",
      "cumulativeGasUsed": "0x8c69b",
      "gasUsed": "0x1c815",
      "contractAddress": null,
      "logs": [
        {
          "address": "0xE14d50Cae8e17A738A7BB23433b1Cfe7E225D365",
          "topics": [
            "0xf4a8f73b2fef46ba045cc57b8c228c5fd042d84904899357429042598173208b",
            "0x000000000000000000000000dfcb98d66336084326bf69a0e55ed15c2ae24008",
            "0x000000000000000000000000fbf4a79ba447ade8b8b593438803dc9df49d6d95",
            "0x0000000000000000000000000000000000000000000000000000000000000000"
          ],
          "data": "0x000000000000000000000000000000000000000000000000000000000000000000000000000000000000000000000000000000000000000000000000000000a000000000000000000000000000000000000000000000000000000000000000e000000000000000000000000000000000000000000000000000000000000001206ab9688625465f5f4a7e7626672a8cff5f52b86c8cf964b868577bdd21386baf00000000000000000000000000000000000000000000000000000000000000084732373835333232000000000000000000000000000000000000000000000000000000000000000000000000000000000000000000000000000000000000000a30433954524653435442000000000000000000000000000000000000000000000000000000000000000000000000000000000000000000000000000000000000",
          "blockHash": "0x903bee4ff2f69156ce208381764d98496de59053d61d8c3a87782765a60f3739",
          "blockNumber": "0x6a8fe7",
          "transactionHash": "0x7abb8c0f6e22c2bedb3560d43032ea430f7eb3f08a686c4524940cf17d8f6dec",
          "transactionIndex": "0x8",
          "logIndex": "0x9",
          "removed": false
        }
      ],
      "status": "0x1",
      "logsBloom": "0x00000000000000000040000000000000000000000000000000000000000000000000000000000000000004000000000000000000000000000000000400000000000000000000000000000080002000000000000000000020000000000000000000000000020000000000000000000800000000000000080000000000000000000000000000000000000080000000000000000000000000000000000000000000000000000000000000000000000000000000000000000000000000000000000000000000800000000000000000000000000000000000000001010000000020000000000000004000000000000000000000000000000000000000000000000000",
      "type": "0x2",
      "effectiveGasPrice": "0x1a6daa112"
    }
  ],
  "libraries": [],
  "pending": [],
  "returns": {},
  "timestamp": 1730381545,
  "chain": 11155111,
  "commit": "6ec0c8a"
}