{
  "transactions": [
    {
      "hash": "0xa87f6574e52948286a1cb04aade6b3f9cdbc02c4e8ae318244bd60af7bc55c51",
      "transactionType": "CALL",
      "contractName": null,
      "contractAddress": "0xac744fb633309bc0db17f740292b5ea28f3bc5b1",
      "function": "openCardRequest(address,address,uint256,uint256,bytes,bytes,bytes)",
      "arguments": [
        "0x44666fBe315c98739860C398948D71cBE454fA16",
        "0x6689a05D49f2a4AA1227E6ca265A1cF3b0Cd6aE7",
        "500000",
        "1729437666",
        "0x36393039343737",
        "0x696e76697465",
        "0x726566657272616c"
      ],
      "transaction": {
        "from": "0x44666fbe315c98739860c398948d71cbe454fa16",
        "to": "0xac744fb633309bc0db17f740292b5ea28f3bc5b1",
        "gas": "0x49626",
        "value": "0x0",
        "input": "0x2629c25c00000000000000000000000044666fbe315c98739860c398948d71cbe454fa160000000000000000000000006689a05d49f2a4aa1227e6ca265a1cf3b0cd6ae7000000000000000000000000000000000000000000000000000000000007a1200000000000000000000000000000000000000000000000000000000067151fe200000000000000000000000000000000000000000000000000000000000000e000000000000000000000000000000000000000000000000000000000000001200000000000000000000000000000000000000000000000000000000000000160000000000000000000000000000000000000000000000000000000000000000736393039343737000000000000000000000000000000000000000000000000000000000000000000000000000000000000000000000000000000000000000006696e7669746500000000000000000000000000000000000000000000000000000000000000000000000000000000000000000000000000000000000000000008726566657272616c000000000000000000000000000000000000000000000000",
        "nonce": "0x3",
        "chainId": "0xaa36a7"
      },
      "additionalContracts": [],
      "isFixedGasLimit": false
    }
  ],
  "receipts": [
    {
      "status": "0x1",
      "cumulativeGasUsed": "0xfc0389",
      "logs": [
        {
          "address": "0xac744fb633309bc0db17f740292b5ea28f3bc5b1",
          "topics": [
            "0xf9d731fb2470aff36ffdd6dfd303f855a20d2ece69aefa19afe94173337080ce",
            "0x00000000000000000000000044666fbe315c98739860c398948d71cbe454fa16",
            "0x0000000000000000000000006689a05d49f2a4aa1227e6ca265a1cf3b0cd6ae7",
            "0x000000000000000000000000000000000000000000000000000000000007a120"
          ],
          "data": "0x0000000000000000000000000000000000000000000000000000000067151fe200000000000000000000000000000000000000000000000000000000000000a000000000000000000000000000000000000000000000000000000000000000e0000000000000000000000000000000000000000000000000000000000000012051b668c59dd9491d74e6fa23e622294a0b73727dcd76bfadd5ffeda41397d342000000000000000000000000000000000000000000000000000000000000000736393039343737000000000000000000000000000000000000000000000000000000000000000000000000000000000000000000000000000000000000000006696e7669746500000000000000000000000000000000000000000000000000000000000000000000000000000000000000000000000000000000000000000008726566657272616c000000000000000000000000000000000000000000000000",
          "blockHash": "0x196690ff4e21876d4e013c655600ae33cfdd4043c63a2e95192dd8bcb13b847b",
          "blockNumber": "0x6973a1",
          "transactionHash": "0xa87f6574e52948286a1cb04aade6b3f9cdbc02c4e8ae318244bd60af7bc55c51",
          "transactionIndex": "0x4f",
          "logIndex": "0x96",
          "removed": false
        }
      ],
      "logsBloom": "0x00000000000000000000000000000000000000000000000000040000000000000000010000000000000000000000000000000000000000000100001000000000000000000000000000000000000000000000000000000000000000000000000000000000000000000000000c00000000000000000000000400000000000000000100000000000000000000000000002000000000000000000080000000000001000000000000001000000000000000000004000000000000000000040000000000000000000000000000000000000000000000000000000000000000000000000000000000000000000000000000000000000000000000000008000000000000",
      "type": "0x2",
      "transactionHash": "0xa87f6574e52948286a1cb04aade6b3f9cdbc02c4e8ae318244bd60af7bc55c51",
      "transactionIndex": "0x4f",
      "blockHash": "0x196690ff4e21876d4e013c655600ae33cfdd4043c63a2e95192dd8bcb13b847b",
      "blockNumber": "0x6973a1",
      "gasUsed": "0x35210",
      "effectiveGasPrice": "0xb6c85d00",
      "from": "0x44666fbe315c98739860c398948d71cbe454fa16",
      "to": "0xac744fb633309bc0db17f740292b5ea28f3bc5b1",
      "contractAddress": null
    }
  ],
  "libraries": [],
  "pending": [],
  "returns": {},
  "timestamp": 1729436893,
  "chain": 11155111,
  "commit": "4afab55"
}