{
  "transactions": [
    {
      "hash": "0x56d441111178b46b666afaa74b19896e4fcf40fde13aa243efe05b872d97f996",
      "transactionType": "CALL",
      "contractName": null,
      "contractAddress": "0x493c7f92bd093b6268837dac3af1652733b98012",
      "function": "grantRole(bytes32,address)",
      "arguments": [
        "0x7b765e0e932d348852a6f810bfa1ab891e259123f02db8cdcde614c570223357",
        "0xdfcb98d66336084326Bf69a0e55Ed15c2Ae24008"
      ],
      "transaction": {
        "from": "0xdfcb98d66336084326bf69a0e55ed15c2ae24008",
        "to": "0x493c7f92bd093b6268837dac3af1652733b98012",
        "gas": "0x115b3",
        "value": "0x0",
        "input": "0x2f2ff15d7b765e0e932d348852a6f810bfa1ab891e259123f02db8cdcde614c570223357000000000000000000000000dfcb98d66336084326bf69a0e55ed15c2ae24008",
        "nonce": "0xb93",
        "chainId": "0xaa36a7"
      },
      "additionalContracts": [],
      "isFixedGasLimit": false
    }
  ],
  "receipts": [
    {
      "status": "0x1",
      "cumulativeGasUsed": "0x7dad2f",
      "logs": [
        {
          "address": "0x493c7f92bd093b6268837dac3af1652733b98012",
          "topics": [
            "0x2f8788117e7eff1d82e926ec794901d17c78024a50270940304540a733656f0d",
            "0x7b765e0e932d348852a6f810bfa1ab891e259123f02db8cdcde614c570223357",
            "0x000000000000000000000000dfcb98d66336084326bf69a0e55ed15c2ae24008",
            "0x000000000000000000000000dfcb98d66336084326bf69a0e55ed15c2ae24008"
          ],
          "data": "0x",
          "blockHash": "0xca6bdce4f640d230ebc6dd3ed4da09e472e66f60b2718427e403a1548f8733b2",
          "blockNumber": "0x68e4c0",
          "transactionHash": "0x56d441111178b46b666afaa74b19896e4fcf40fde13aa243efe05b872d97f996",
          "transactionIndex": "0x62",
          "logIndex": "0x72",
          "removed": false
        }
      ],
      "logsBloom": "0x00000004000000000000000000000000000000000000000000000000000000000000000000000000000004000000000000000000000000000000000000000000000000000000001000000000000000000000000000000020000000000000000000000000000000000000000000000000000000000000000000000000200000000000000000000000000000000000000000000000000000000000000000000000000000000000000000000000000000000000000000000000201000000000000000000002000000000000000000000000000000000000000101000000000000000000004000000000000000000400000000000000000000000000000000000000",
      "type": "0x2",
      "transactionHash": "0x56d441111178b46b666afaa74b19896e4fcf40fde13aa243efe05b872d97f996",
      "transactionIndex": "0x62",
      "blockHash": "0xca6bdce4f640d230ebc6dd3ed4da09e472e66f60b2718427e403a1548f8733b2",
      "blockNumber": "0x68e4c0",
      "gasUsed": "0xc90e",
      "effectiveGasPrice": "0x332682c84e",
      "from": "0xdfcb98d66336084326bf69a0e55ed15c2ae24008",
      "to": "0x493c7f92bd093b6268837dac3af1652733b98012",
      "contractAddress": null
    }
  ],
  "libraries": [],
  "pending": [],
  "returns": {},
  "timestamp": 1728909471,
  "chain": 11155111,
  "commit": "f196685"
}