{
  "transactions": [
    {
      "hash": "0x9e03faecf573541b6bddf16ee76383e6b173f88f445546efdaab1e5ab1a15fdf",
      "transactionType": "CALL",
      "contractName": null,
      "contractAddress": "0x6f3a83fcd2b6e746f98ee267a639ff95c4e6c965",
      "function": "openCardRequest(address,address,uint256,uint256)",
      "arguments": [
        "0xdfcb98d66336084326Bf69a0e55Ed15c2Ae24008",
        "0xFbf4A79ba447adE8b8B593438803Dc9Df49d6D95",
        "10000",
        "1729008000"
      ],
      "transaction": {
        "from": "0xdfcb98d66336084326bf69a0e55ed15c2ae24008",
        "to": "0x6f3a83fcd2b6e746f98ee267a639ff95c4e6c965",
        "gas": "0x30686",
        "value": "0x0",
        "input": "0x87703f95000000000000000000000000dfcb98d66336084326bf69a0e55ed15c2ae24008000000000000000000000000fbf4a79ba447ade8b8b593438803dc9df49d6d95000000000000000000000000000000000000000000000000000000000000271000000000000000000000000000000000000000000000000000000000670e9180",
        "nonce": "0xb9b",
        "chainId": "0xaa36a7"
      },
      "additionalContracts": [],
      "isFixedGasLimit": false
    }
  ],
  "receipts": [
    {
      "status": "0x1",
      "cumulativeGasUsed": "0x5101a8",
      "logs": [
        {
          "address": "0x6f3a83fcd2b6e746f98ee267a639ff95c4e6c965",
          "topics": [
            "0x342448078c1771891e6ee63447b608eecb6f9a5face3d564550cb77fbcea9062",
            "0x000000000000000000000000dfcb98d66336084326bf69a0e55ed15c2ae24008",
            "0x000000000000000000000000fbf4a79ba447ade8b8b593438803dc9df49d6d95",
            "0x0000000000000000000000000000000000000000000000000000000000002710"
          ],
          "data": "0x00000000000000000000000000000000000000000000000000000000670e91809ee9d6409659e962bdf4a79377d043e9dcb7e688aa6a860bb369273be6ca3abe",
          "blockHash": "0x789177730823e5fabb85c741849b25c0c7bdde2f35948670cf1ee3cf31d61b07",
          "blockNumber": "0x68e51a",
          "transactionHash": "0x9e03faecf573541b6bddf16ee76383e6b173f88f445546efdaab1e5ab1a15fdf",
          "transactionIndex": "0x25",
          "logIndex": "0x3d",
          "removed": false
        }
      ],
      "logsBloom": "0x00000000000000000100000000000000000000000000000000000000000000000000000000000000000004000000000000000000000000000000000000000000000000000000000000000080000000000000000000000060000000000000000000000000000000000000000000000000000000000000000000000000000000000000000000000000000100000000000000000010000000000000000000000000000000000000000000000000000000000020000000000000000000000800000000000000800000002000000000001000000000000000000001010000000000000000000000000000000000000000000000000000000000000002000000000000",
      "type": "0x2",
      "transactionHash": "0x9e03faecf573541b6bddf16ee76383e6b173f88f445546efdaab1e5ab1a15fdf",
      "transactionIndex": "0x25",
      "blockHash": "0x789177730823e5fabb85c741849b25c0c7bdde2f35948670cf1ee3cf31d61b07",
      "blockNumber": "0x68e51a",
      "gasUsed": "0x230bf",
      "effectiveGasPrice": "0x31023a47f0",
      "from": "0xdfcb98d66336084326bf69a0e55ed15c2ae24008",
      "to": "0x6f3a83fcd2b6e746f98ee267a639ff95c4e6c965",
      "contractAddress": null
    }
  ],
  "libraries": [],
  "pending": [],
  "returns": {},
  "timestamp": 1728910769,
  "chain": 11155111,
  "commit": "479873c"
}