{
  "transactions": [
    {
      "hash": "0x78b23ce1d6e963984ed14ffc52ba3e2d4c2b7e96a0bb9404668837376acd90ca",
      "transactionType": "CALL",
      "contractName": null,
      "contractAddress": "0xf1f909426cbb78a50daef0a00dd8b81b2ba4d7e7",
      "function": "grantRole(bytes32,address)",
      "arguments": [
        "0x7b765e0e932d348852a6f810bfa1ab891e259123f02db8cdcde614c570223357",
        "0x98C67DAeBb5b52018874039CF461CD1b92E2F220"
      ],
      "transaction": {
        "from": "0xdfcb98d66336084326bf69a0e55ed15c2ae24008",
        "to": "0xf1f909426cbb78a50daef0a00dd8b81b2ba4d7e7",
        "gas": "0x115b3",
        "value": "0x0",
        "input": "0x2f2ff15d7b765e0e932d348852a6f810bfa1ab891e259123f02db8cdcde614c57022335700000000000000000000000098c67daebb5b52018874039cf461cd1b92e2f220",
        "nonce": "0xb8f",
        "chainId": "0xaa36a7"
      },
      "additionalContracts": [],
      "isFixedGasLimit": false
    }
  ],
  "receipts": [
    {
      "status": "0x1",
      "cumulativeGasUsed": "0xaff86b",
      "logs": [
        {
          "address": "0xf1f909426cbb78a50daef0a00dd8b81b2ba4d7e7",
          "topics": [
            "0x2f8788117e7eff1d82e926ec794901d17c78024a50270940304540a733656f0d",
            "0x7b765e0e932d348852a6f810bfa1ab891e259123f02db8cdcde614c570223357",
            "0x00000000000000000000000098c67daebb5b52018874039cf461cd1b92e2f220",
            "0x000000000000000000000000dfcb98d66336084326bf69a0e55ed15c2ae24008"
          ],
          "data": "0x",
          "blockHash": "0xe7eb6cbc4d58f1837024879f3255f2fa4b7452b355f57da655f06db913083f55",
          "blockNumber": "0x68c819",
          "transactionHash": "0x78b23ce1d6e963984ed14ffc52ba3e2d4c2b7e96a0bb9404668837376acd90ca",
          "transactionIndex": "0x2e",
          "logIndex": "0x31",
          "removed": false
        }
      ],
      "logsBloom": "0x00000004000000800000000000000000000000000000000000000000000000000000000000000000000004000800000000000000000000000000000000000000000000000000000000080000000000000000000000000020000000000000000000000000000000000000000002000000000000000000000000000000000000000000000000000000000000000000000000000000000000000000000000000000000000000000000000000000000000000000000000000001001000000000000000000002000000000000000000000000000000000000000101000000000000000000004000000000000000000400000000000000000000100000000000000000",
      "type": "0x2",
      "transactionHash": "0x78b23ce1d6e963984ed14ffc52ba3e2d4c2b7e96a0bb9404668837376acd90ca",
      "transactionIndex": "0x2e",
      "blockHash": "0xe7eb6cbc4d58f1837024879f3255f2fa4b7452b355f57da655f06db913083f55",
      "blockNumber": "0x68c819",
      "gasUsed": "0xc90e",
      "effectiveGasPrice": "0x223d73180",
      "from": "0xdfcb98d66336084326bf69a0e55ed15c2ae24008",
      "to": "0xf1f909426cbb78a50daef0a00dd8b81b2ba4d7e7",
      "contractAddress": null
    }
  ],
  "libraries": [],
  "pending": [],
  "returns": {},
  "timestamp": 1728803461,
  "chain": 11155111,
  "commit": "34181f4"
}