{
  "transactions": [
    {
      "hash": "0x400e5b3f90d2dadc86f8bba5e26eca24a0eba47a8ef5f826d353fa7321c1d686",
      "transactionType": "CALL",
      "contractName": null,
      "contractAddress": "0xE14d50Cae8e17A738A7BB23433b1Cfe7E225D365",
      "function": "openCardRequest(address,address,uint256,string,string,string)",
      "arguments": [
        "0x0ef02c734e188639e15d23e899215A53E4dAA938",
        "0xEeeeeEeeeEeEeeEeEeEeeEEEeeeeEeeeeeeeEEeE",
        "0",
        "\"G27853\"",
        "\"0C9TRFSCTB\"",
        "\"\""
      ],
      "transaction": {
        "type": "0x02",
        "from": "0xdfcb98d66336084326bf69a0e55ed15c2ae24008",
        "to": "0xe14d50cae8e17a738a7bb23433b1cfe7e225d365",
        "gas": "0x30c91",
        "value": "0x0",
        "data": "0xa4ded79f0000000000000000000000000ef02c734e188639e15d23e899215a53e4daa938000000000000000000000000eeeeeeeeeeeeeeeeeeeeeeeeeeeeeeeeeeeeeeee000000000000000000000000000000000000000000000000000000000000000000000000000000000000000000000000000000000000000000000000000000c00000000000000000000000000000000000000000000000000000000000000100000000000000000000000000000000000000000000000000000000000000014000000000000000000000000000000000000000000000000000000000000000064732373835330000000000000000000000000000000000000000000000000000000000000000000000000000000000000000000000000000000000000000000a30433954524653435442000000000000000000000000000000000000000000000000000000000000000000000000000000000000000000000000000000000000",
        "nonce": "0xba4",
        "accessList": []
      },
      "additionalContracts": [],
      "isFixedGasLimit": false
    }
  ],
  "receipts": [
    {
      "transactionHash": "0x400e5b3f90d2dadc86f8bba5e26eca24a0eba47a8ef5f826d353fa7321c1d686",
      "transactionIndex": "0x3",
      "blockHash": "0x296281bf70c706ff07f6b9cd7bb299e903da4218957f25a2c718b27d5f35a99f",
      "blockNumber": "0x6aac23",
      "from": "0xdfcb98d66336084326Bf69a0e55Ed15c2Ae24008",
      "to": "0xE14d50Cae8e17A738A7BB23433b1Cfe7E225D365",
      "cumulativeGasUsed": "0x35fe9",
      "gasUsed": "0x215b9",
      "contractAddress": null,
      "logs": [
        {
          "address": "0xE14d50Cae8e17A738A7BB23433b1Cfe7E225D365",
          "topics": [
            "0xf4a8f73b2fef46ba045cc57b8c228c5fd042d84904899357429042598173208b",
            "0x0000000000000000000000000ef02c734e188639e15d23e899215a53e4daa938",
            "0x000000000000000000000000eeeeeeeeeeeeeeeeeeeeeeeeeeeeeeeeeeeeeeee",
            "0x0000000000000000000000000000000000000000000000000000000000000001"
          ],
          "data": "0x000000000000000000000000000000000000000000000000000000000000000000000000000000000000000000000000000000000000000000000000000000a000000000000000000000000000000000000000000000000000000000000000e000000000000000000000000000000000000000000000000000000000000001208cea7907b649886777b5c73139aa7f461f35ca4ff0e06a395aa55858fdb0c76000000000000000000000000000000000000000000000000000000000000000064732373835330000000000000000000000000000000000000000000000000000000000000000000000000000000000000000000000000000000000000000000a30433954524653435442000000000000000000000000000000000000000000000000000000000000000000000000000000000000000000000000000000000000",
          "blockHash": "0x296281bf70c706ff07f6b9cd7bb299e903da4218957f25a2c718b27d5f35a99f",
          "blockNumber": "0x6aac23",
          "transactionHash": "0x400e5b3f90d2dadc86f8bba5e26eca24a0eba47a8ef5f826d353fa7321c1d686",
          "transactionIndex": "0x3",
          "logIndex": "0x2",
          "removed": false
        }
      ],
      "status": "0x1",
      "logsBloom": "0x000000000000000000400000000000000000000000000000000000000000000000000000000000000000000000000000000000000000000000100004000400000000000000000000000000000020000000000000000c0000000000000000000000000000000000000000000000000000000004000000080000000000000000000000000000000000000080000000000000000000000000000000000000000000000000000000000000000000000000000000000000000000000000200000000000000000000000000000000000100000000000020000000000000000000040000000000000004000000000000000000000000000000000000000000000000000",
      "type": "0x2",
      "effectiveGasPrice": "0x14ee5fbf0"
    }
  ],
  "libraries": [],
  "pending": [],
  "returns": {},
  "timestamp": 1730473663,
  "chain": 11155111,
  "commit": "462e737"
}