{
  "transactions": [
    {
      "hash": "0x9fb6b8222a07a343c8482270e38745b26f1efa4c6512eedc25d85271879a94f6",
      "transactionType": "CALL",
      "contractName": null,
      "contractAddress": "0xf1f909426cbb78a50daef0a00dd8b81b2ba4d7e7",
      "function": "grantRole(bytes32,address)",
      "arguments": [
        "0x7b765e0e932d348852a6f810bfa1ab891e259123f02db8cdcde614c570223357",
        "0xdfcb98d66336084326Bf69a0e55Ed15c2Ae24008"
      ],
      "transaction": {
        "from": "0xdfcb98d66336084326bf69a0e55ed15c2ae24008",
        "to": "0xf1f909426cbb78a50daef0a00dd8b81b2ba4d7e7",
        "gas": "0x115b3",
        "value": "0x0",
        "input": "0x2f2ff15d7b765e0e932d348852a6f810bfa1ab891e259123f02db8cdcde614c570223357000000000000000000000000dfcb98d66336084326bf69a0e55ed15c2ae24008",
        "nonce": "0xb8d",
        "chainId": "0xaa36a7"
      },
      "additionalContracts": [],
      "isFixedGasLimit": false
    }
  ],
  "receipts": [
    {
      "status": "0x1",
      "cumulativeGasUsed": "0xa48f30",
      "logs": [
        {
          "address": "0xf1f909426cbb78a50daef0a00dd8b81b2ba4d7e7",
          "topics": [
            "0x2f8788117e7eff1d82e926ec794901d17c78024a50270940304540a733656f0d",
            "0x7b765e0e932d348852a6f810bfa1ab891e259123f02db8cdcde614c570223357",
            "0x000000000000000000000000dfcb98d66336084326bf69a0e55ed15c2ae24008",
            "0x000000000000000000000000dfcb98d66336084326bf69a0e55ed15c2ae24008"
          ],
          "data": "0x",
          "blockHash": "0xfd4f657d935080530e21958caae108a13499b8b909cb0610bb9ee370e57713d4",
          "blockNumber": "0x68c68e",
          "transactionHash": "0x9fb6b8222a07a343c8482270e38745b26f1efa4c6512eedc25d85271879a94f6",
          "transactionIndex": "0x1c",
          "logIndex": "0x18",
          "removed": false
        }
      ],
      "logsBloom": "0x00000004000000000000000000000000000000000000000000000000000000000000000000000000000004000800000000000000000000000000000000000000000000000000000000000000000000000000000000000020000000000000000000000000000000000000000002000000000000000000000000000000000000000000000000000000000000000000000000000000000000000000000000000000000000000000000000000000000000000000000000000000001000000000000000000002000000000000000000000000000000000000000101000000000000000000004000000000000000000400000000000000000000100000000000000000",
      "type": "0x2",
      "transactionHash": "0x9fb6b8222a07a343c8482270e38745b26f1efa4c6512eedc25d85271879a94f6",
      "transactionIndex": "0x1c",
      "blockHash": "0xfd4f657d935080530e21958caae108a13499b8b909cb0610bb9ee370e57713d4",
      "blockNumber": "0x68c68e",
      "gasUsed": "0xc90e",
      "effectiveGasPrice": "0x243318f82",
      "from": "0xdfcb98d66336084326bf69a0e55ed15c2ae24008",
      "to": "0xf1f909426cbb78a50daef0a00dd8b81b2ba4d7e7",
      "contractAddress": null
    }
  ],
  "libraries": [],
  "pending": [],
  "returns": {},
  "timestamp": 1728797869,
  "chain": 11155111,
  "commit": "2c2f9f6"
}