{
  "transactions": [
    {
      "hash": "0x14aebf803fe09dc303346117da6b2b7659040d2960f9bc4278ee5789b7b10b1c",
      "transactionType": "CALL",
      "contractName": null,
      "contractAddress": "0x6f3a83fcd2b6e746f98ee267a639ff95c4e6c965",
      "function": "grantRole(bytes32,address)",
      "arguments": [
        "0x7b765e0e932d348852a6f810bfa1ab891e259123f02db8cdcde614c570223357",
        "0x98C67DAeBb5b52018874039CF461CD1b92E2F220"
      ],
      "transaction": {
        "from": "0xdfcb98d66336084326bf69a0e55ed15c2ae24008",
        "to": "0x6f3a83fcd2b6e746f98ee267a639ff95c4e6c965",
        "gas": "0x115b3",
        "value": "0x0",
        "input": "0x2f2ff15d7b765e0e932d348852a6f810bfa1ab891e259123f02db8cdcde614c57022335700000000000000000000000098c67daebb5b52018874039cf461cd1b92e2f220",
        "nonce": "0xb9a",
        "chainId": "0xaa36a7"
      },
      "additionalContracts": [],
      "isFixedGasLimit": false
    }
  ],
  "receipts": [
    {
      "status": "0x1",
      "cumulativeGasUsed": "0x3aaaff",
      "logs": [
        {
          "address": "0x6f3a83fcd2b6e746f98ee267a639ff95c4e6c965",
          "topics": [
            "0x2f8788117e7eff1d82e926ec794901d17c78024a50270940304540a733656f0d",
            "0x7b765e0e932d348852a6f810bfa1ab891e259123f02db8cdcde614c570223357",
            "0x00000000000000000000000098c67daebb5b52018874039cf461cd1b92e2f220",
            "0x000000000000000000000000dfcb98d66336084326bf69a0e55ed15c2ae24008"
          ],
          "data": "0x",
          "blockHash": "0xf4d3bace82091709fa0365d00f0a061197338e5ebd638abfd1b401d12486ada4",
          "blockNumber": "0x68e50f",
          "transactionHash": "0x14aebf803fe09dc303346117da6b2b7659040d2960f9bc4278ee5789b7b10b1c",
          "transactionIndex": "0x27",
          "logIndex": "0x40",
          "removed": false
        }
      ],
      "logsBloom": "0x00000004000000800000000000000000000000000000000000000000000000000000000000000000000004000000000000000000000000000000000000000000000000000000000000080000000000000000000000000020000000000000000000000000000000000000000000000000000000000000000000000000000000000000000000000000000000000000000000000000000000000000000000000000000000000000000000000000000000000020000000000001001000000000000000000002000000000000000000001000000000000000000101000000000000000000004000000000000000000400000000000000000000000002000000000000",
      "type": "0x2",
      "transactionHash": "0x14aebf803fe09dc303346117da6b2b7659040d2960f9bc4278ee5789b7b10b1c",
      "transactionIndex": "0x27",
      "blockHash": "0xf4d3bace82091709fa0365d00f0a061197338e5ebd638abfd1b401d12486ada4",
      "blockNumber": "0x68e50f",
      "gasUsed": "0xc90e",
      "effectiveGasPrice": "0x3025ee753c",
      "from": "0xdfcb98d66336084326bf69a0e55ed15c2ae24008",
      "to": "0x6f3a83fcd2b6e746f98ee267a639ff95c4e6c965",
      "contractAddress": null
    }
  ],
  "libraries": [],
  "pending": [],
  "returns": {},
  "timestamp": 1728910572,
  "chain": 11155111,
  "commit": "479873c"
}