{
  "transactions": [
    {
      "hash": "0x119f2e165d68ad733da377dc761a274e11fefa003b727224210511a6acb1f359",
      "transactionType": "CALL",
      "contractName": null,
      "contractAddress": "0x493c7f92bd093b6268837dac3af1652733b98012",
      "function": "grantRole(bytes32,address)",
      "arguments": [
        "0x7b765e0e932d348852a6f810bfa1ab891e259123f02db8cdcde614c570223357",
        "0x8Aff4c31cc1609466c678f974e96F3E4258d109d"
      ],
      "transaction": {
        "from": "0xdfcb98d66336084326bf69a0e55ed15c2ae24008",
        "to": "0x493c7f92bd093b6268837dac3af1652733b98012",
        "gas": "0x115b3",
        "value": "0x0",
        "input": "0x2f2ff15d7b765e0e932d348852a6f810bfa1ab891e259123f02db8cdcde614c5702233570000000000000000000000008aff4c31cc1609466c678f974e96f3e4258d109d",
        "nonce": "0xb94",
        "chainId": "0xaa36a7"
      },
      "additionalContracts": [],
      "isFixedGasLimit": false
    }
  ],
  "receipts": [
    {
      "status": "0x1",
      "cumulativeGasUsed": "0x92aa74",
      "logs": [
        {
          "address": "0x493c7f92bd093b6268837dac3af1652733b98012",
          "topics": [
            "0x2f8788117e7eff1d82e926ec794901d17c78024a50270940304540a733656f0d",
            "0x7b765e0e932d348852a6f810bfa1ab891e259123f02db8cdcde614c570223357",
            "0x0000000000000000000000008aff4c31cc1609466c678f974e96f3e4258d109d",
            "0x000000000000000000000000dfcb98d66336084326bf69a0e55ed15c2ae24008"
          ],
          "data": "0x",
          "blockHash": "0xa173c349b511b6af23e0e073492d1018ec3a48494d29854e59669517dbed63c8",
          "blockNumber": "0x68e4ca",
          "transactionHash": "0x119f2e165d68ad733da377dc761a274e11fefa003b727224210511a6acb1f359",
          "transactionIndex": "0x60",
          "logIndex": "0x86",
          "removed": false
        }
      ],
      "logsBloom": "0x00000004000000000000000000000000000000000000004000000000000000000000000000000000000004000000000000000000000000000000000000000000000000000000001000000000000000000000000000000020000000200000000000000000000000000000000000000000000000000000000000000000200000000000000000000000000000000000000000000000000000000000000000000000000000000000000000000000000000000000000000000000201000000000000000000002000000000000000000000000000400000000000101000000000000000000004000000000000000000400000000000000000000000000000000000000",
      "type": "0x2",
      "transactionHash": "0x119f2e165d68ad733da377dc761a274e11fefa003b727224210511a6acb1f359",
      "transactionIndex": "0x60",
      "blockHash": "0xa173c349b511b6af23e0e073492d1018ec3a48494d29854e59669517dbed63c8",
      "blockNumber": "0x68e4ca",
      "gasUsed": "0xc90e",
      "effectiveGasPrice": "0x32646236ec",
      "from": "0xdfcb98d66336084326bf69a0e55ed15c2ae24008",
      "to": "0x493c7f92bd093b6268837dac3af1652733b98012",
      "contractAddress": null
    }
  ],
  "libraries": [],
  "pending": [],
  "returns": {},
  "timestamp": 1728909630,
  "chain": 11155111,
  "commit": "f196685"
}