{
  "transactions": [
    {
      "hash": "0x91eaddda4099fdc79b6a94b3ac6203fa6392439ecab2585a0366240b42365e93",
      "transactionType": "CALL",
      "contractName": null,
      "contractAddress": "0xE14d50Cae8e17A738A7BB23433b1Cfe7E225D365",
      "function": "grantRole(bytes32,address)",
      "arguments": [
        "0x7b765e0e932d348852a6f810bfa1ab891e259123f02db8cdcde614c570223357",
        "0xc68250982561A87900e2906900d02c13Ca6AE7ec"
      ],
      "transaction": {
        "type": "0x02",
        "from": "0xdfcb98d66336084326bf69a0e55ed15c2ae24008",
        "to": "0xe14d50cae8e17a738a7bb23433b1cfe7e225d365",
        "gas": "0x15085",
        "value": "0x0",
        "data": "0x2f2ff15d7b765e0e932d348852a6f810bfa1ab891e259123f02db8cdcde614c570223357000000000000000000000000c68250982561a87900e2906900d02c13ca6ae7ec",
        "nonce": "0xba0",
        "accessList": []
      },
      "additionalContracts": [],
      "isFixedGasLimit": false
    }
  ],
  "receipts": [
    {
      "transactionHash": "0x91eaddda4099fdc79b6a94b3ac6203fa6392439ecab2585a0366240b42365e93",
      "transactionIndex": "0x8",
      "blockHash": "0x23e56fd85318e9a1621f77be2f35b8cc11bcbf27305f3f6eebcab8a527526232",
      "blockNumber": "0x6a8371",
      "from": "0xdfcb98d66336084326Bf69a0e55Ed15c2Ae24008",
      "to": "0xE14d50Cae8e17A738A7BB23433b1Cfe7E225D365",
      "cumulativeGasUsed": "0x7ce68d",
      "gasUsed": "0xe61a",
      "contractAddress": null,
      "logs": [
        {
          "address": "0xE14d50Cae8e17A738A7BB23433b1Cfe7E225D365",
          "topics": [
            "0x2f8788117e7eff1d82e926ec794901d17c78024a50270940304540a733656f0d",
            "0x7b765e0e932d348852a6f810bfa1ab891e259123f02db8cdcde614c570223357",
            "0x000000000000000000000000c68250982561a87900e2906900d02c13ca6ae7ec",
            "0x000000000000000000000000dfcb98d66336084326bf69a0e55ed15c2ae24008"
          ],
          "data": "0x",
          "blockHash": "0x23e56fd85318e9a1621f77be2f35b8cc11bcbf27305f3f6eebcab8a527526232",
          "blockNumber": "0x6a8371",
          "transactionHash": "0x91eaddda4099fdc79b6a94b3ac6203fa6392439ecab2585a0366240b42365e93",
          "transactionIndex": "0x8",
          "logIndex": "0x1e",
          "removed": false
        }
      ],
      "status": "0x1",
      "logsBloom": "0x00000004000000000000000000000000000000000000000000000000000000000000000000000000000004000000000000000000000000000000000000000000000000000000000000000000002000000000000000000020000000000000000000000000000000000000000000000000000000000000080000000000000000000000000000000000000080000000000000000000400000000000000000000000000000000000000000000000000000000000008000000000001000000000000000000002000000000000000000000000000000000000000101000000000000000080004000000000000000000400000000000000000000000000000000000000",
      "type": "0x2",
      "effectiveGasPrice": "0x339fbe7e2"
    }
  ],
  "libraries": [],
  "pending": [],
  "returns": {},
  "timestamp": 1730340829,
  "chain": 11155111,
  "commit": "ee33af1"
}