{
  "transactions": [
    {
      "hash": "0x2b20d78ce15d8de66cb2dc9a590d784857b89e81909f1d21044f42fe2b1f01e9",
      "transactionType": "CALL",
      "contractName": null,
      "contractAddress": "0xE14d50Cae8e17A738A7BB23433b1Cfe7E225D365",
      "function": "openCardRequest(address,address,uint256,string,string,string)",
      "arguments": [
        "0x8ca2103069C0b4188E2aaB1255B8149D16d9730e",
        "0xEeeeeEeeeEeEeeEeEeEeeEEEeeeeEeeeeeeeEEeE",
        "10000000000000000",
        "\"G27853\"",
        "\"0C9TRFSCTB\"",
        "\"\""
      ],
      "transaction": {
        "type": "0x02",
        "from": "0xdfcb98d66336084326bf69a0e55ed15c2ae24008",
        "to": "0xe14d50cae8e17a738a7bb23433b1cfe7e225d365",
        "gas": "0x29f75",
        "value": "0x2386f26fc10000",
        "data": "0xa4ded79f0000000000000000000000008ca2103069c0b4188e2aab1255b8149d16d9730e000000000000000000000000eeeeeeeeeeeeeeeeeeeeeeeeeeeeeeeeeeeeeeee000000000000000000000000000000000000000000000000002386f26fc1000000000000000000000000000000000000000000000000000000000000000000c00000000000000000000000000000000000000000000000000000000000000100000000000000000000000000000000000000000000000000000000000000014000000000000000000000000000000000000000000000000000000000000000064732373835330000000000000000000000000000000000000000000000000000000000000000000000000000000000000000000000000000000000000000000a30433954524653435442000000000000000000000000000000000000000000000000000000000000000000000000000000000000000000000000000000000000",
        "nonce": "0xba7",
        "accessList": []
      },
      "additionalContracts": [],
      "isFixedGasLimit": false
    }
  ],
  "receipts": [
    {
      "transactionHash": "0x2b20d78ce15d8de66cb2dc9a590d784857b89e81909f1d21044f42fe2b1f01e9",
      "transactionIndex": "0x5",
      "blockHash": "0x4a18d7623b35807f065564fdc768343fd15bb3b311b9f0a623fa491c6e3e48f2",
      "blockNumber": "0x6aac3f",
      "from": "0xdfcb98d66336084326Bf69a0e55Ed15c2Ae24008",
      "to": "0xE14d50Cae8e17A738A7BB23433b1Cfe7E225D365",
      "cumulativeGasUsed": "0x3d068",
      "gasUsed": "0x1e620",
      "contractAddress": null,
      "logs": [
        {
          "address": "0xE14d50Cae8e17A738A7BB23433b1Cfe7E225D365",
          "topics": [
            "0xf4a8f73b2fef46ba045cc57b8c228c5fd042d84904899357429042598173208b",
            "0x0000000000000000000000008ca2103069c0b4188e2aab1255b8149d16d9730e",
            "0x000000000000000000000000eeeeeeeeeeeeeeeeeeeeeeeeeeeeeeeeeeeeeeee",
            "0x0000000000000000000000000000000000000000000000000000000000000000"
          ],
          "data": "0x000000000000000000000000000000000000000000000000002386f26fc1000000000000000000000000000000000000000000000000000000000000000000a000000000000000000000000000000000000000000000000000000000000000e000000000000000000000000000000000000000000000000000000000000001202487aa97f794e735f91bf5517775ad1364912e2a3a8a3b5f80331b98868ef6e600000000000000000000000000000000000000000000000000000000000000064732373835330000000000000000000000000000000000000000000000000000000000000000000000000000000000000000000000000000000000000000000a30433954524653435442000000000000000000000000000000000000000000000000000000000000000000000000000000000000000000000000000000000000",
          "blockHash": "0x4a18d7623b35807f065564fdc768343fd15bb3b311b9f0a623fa491c6e3e48f2",
          "blockNumber": "0x6aac3f",
          "transactionHash": "0x2b20d78ce15d8de66cb2dc9a590d784857b89e81909f1d21044f42fe2b1f01e9",
          "transactionIndex": "0x5",
          "logIndex": "0x2",
          "removed": false
        }
      ],
      "status": "0x1",
      "logsBloom": "0x00000000000000000040000000000000000000000000000000000000001000000000000000000000000000000000000000000000000000000010000400000000000000000000000000000000002000000000000000000008000000000000000000000000020000000000000000000800000000000000080000000000000000000000000000000000000080000000000000000000000000000000000000000000000000000000000000000000000000000000000000000000000000200000000000000000000000000000000000100000000080000000000000000000000020000000000000004000000000000000000000000000000000000000000000000000",
      "type": "0x2",
      "effectiveGasPrice": "0x15500f702"
    }
  ],
  "libraries": [],
  "pending": [],
  "returns": {},
  "timestamp": 1730474008,
  "chain": 11155111,
  "commit": "462e737"
}