{
  "transactions": [
    {
      "hash": "0x6cbea931abfefbbf6648d65d531ea094573b38822b48fc94f432e36d3b82ce08",
      "transactionType": "CALL",
      "contractName": null,
      "contractAddress": "0xF1F909426CbB78A50DAef0a00DD8b81b2BA4D7E7",
      "function": "grantRole(bytes32,address)",
      "arguments": [
        "0x7b765e0e932d348852a6f810bfa1ab891e259123f02db8cdcde614c570223357",
        "0xc68250982561A87900e2906900d02c13Ca6AE7ec"
      ],
      "transaction": {
        "type": "0x02",
        "from": "0xdfcb98d66336084326bf69a0e55ed15c2ae24008",
        "to": "0xf1f909426cbb78a50daef0a00dd8b81b2ba4d7e7",
        "gas": "0x11593",
        "value": "0x0",
        "data": "0x2f2ff15d7b765e0e932d348852a6f810bfa1ab891e259123f02db8cdcde614c570223357000000000000000000000000c68250982561a87900e2906900d02c13ca6ae7ec",
        "nonce": "0xb89",
        "accessList": []
      },
      "additionalContracts": [],
      "isFixedGasLimit": false
    }
  ],
  "receipts": [
    {
      "transactionHash": "0x6cbea931abfefbbf6648d65d531ea094573b38822b48fc94f432e36d3b82ce08",
      "transactionIndex": "0x2",
      "blockHash": "0xa74e2ca79b717d596966c595d650eed7cb7e03e0b6dbe17d36044a2e18c4a75f",
      "blockNumber": "0x684da1",
      "from": "0xdfcb98d66336084326Bf69a0e55Ed15c2Ae24008",
      "to": "0xF1F909426CbB78A50DAef0a00DD8b81b2BA4D7E7",
      "cumulativeGasUsed": "0x16d06",
      "gasUsed": "0xc8f6",
      "contractAddress": null,
      "logs": [
        {
          "address": "0xF1F909426CbB78A50DAef0a00DD8b81b2BA4D7E7",
          "topics": [
            "0x2f8788117e7eff1d82e926ec794901d17c78024a50270940304540a733656f0d",
            "0x7b765e0e932d348852a6f810bfa1ab891e259123f02db8cdcde614c570223357",
            "0x000000000000000000000000c68250982561a87900e2906900d02c13ca6ae7ec",
            "0x000000000000000000000000dfcb98d66336084326bf69a0e55ed15c2ae24008"
          ],
          "data": "0x",
          "blockHash": "0xa74e2ca79b717d596966c595d650eed7cb7e03e0b6dbe17d36044a2e18c4a75f",
          "blockNumber": "0x684da1",
          "transactionHash": "0x6cbea931abfefbbf6648d65d531ea094573b38822b48fc94f432e36d3b82ce08",
          "transactionIndex": "0x2",
          "logIndex": "0x0",
          "removed": false
        }
      ],
      "status": "0x1",
      "logsBloom": "0x00000004000000000000000000000000000000000000000000000000000000000000000000000000000004000800000000000000000000000000000000000000000000000000000000000000000000000000000000000020000000000000000000000000000000000000000002000000000000000000000000000000000000000000000000000000000000000000000000000000400000000000000000000000000000000000000000000000000000000000008000000000001000000000000000000002000000000000000000000000000000000000000101000000000000000080004000000000000000000400000000000000000000100000000000000000",
      "type": "0x2",
      "effectiveGasPrice": "0xde0efb84"
    }
  ],
  "libraries": [],
  "pending": [],
  "returns": {},
  "timestamp": 1728353932,
  "chain": 11155111,
  "commit": "3333490"
}